:100000000C94B8000C94CA000C94CA000C94CA005A
:100010000C9412010C94CA000C94CA000C94B803FE
:100020000C94CA000C94CA000C94CA000C94CA0028
:100030000C94CA000C94CA000C94CA000C94CA0018
:100040000C94CA000C94CA000C94CB010C94CA0006
:100050000C94CA000C94CA000C94CA000C94CA00F8
:100060000C94CA000C94CA00009500918F8D8E9854
:10007000009694929000AC00000000000051210016
:1000800000005A53415722000043584445249C3AEB
:100090000020564654522500004E424847595E0003
:1000A000004C4D4A55262A00003C4B494F29280058
:1000B000003E3F4C3A505F00000040007B2B0000A8
:1000C00000000D7D007E0000007C000000080000A4
:1000D0003100343700000000302E3235363803004E
:1000E000972B332D2A3900000000008700890085F6
:1000F0008381828C008A88868407060000000000C5
:100100000071310000007A73617732000063786417
:100110006534333B0020766674723500006E626889
:1001200067793607082C6D6A75373800002C6B69C3
:100130006F303900002E2F6C3B702D00000027001F
:100140005B3D000000000D5D00230000005C00002E
:10015000000008000031003437000000302E323536
:10016000363803008B2B332D2A390000000000871E
:1001700011241FBECFEFD4E0DEBFCDBF24E0A0E04E
:10018000B1E001C01D92AE36B207E1F70E94EA036A
:100190000C94A6040C9400008091690490916A0468
:1001A0002091590430915A048217930738F0821B2A
:1001B000930B8032910528F443980895805E9C4FFC
:1001C000F6CF8130934008F0439A0895E2EBF0E0D7
:1001D000108286E695E00197F1F70000399A419880
:1001E00086E695E00197F1F700003A9A429886E694
:1001F00095E00197F1F7000039984198108281E06D
:10020000809362041092330180936504089587B14E
:10021000897F87B90895813011F4429A08954298F0
:10022000089508951F920F920FB60F9211242F93E5
:100230003F934F935F936F937F938F939F93AF936E
:10024000BF93EF93FF931092B200809165048130C9
:1002500009F04BC0319B1BC0809133018F5F8093AD
:1002600033018A3011F40E940701809133018B30F1
:1002700039F410926504109233011092580407C0AB
:100280008930D1F480916204813091F4429AFF91D7
:10029000EF91BF91AF919F918F917F916F915F91FE
:1002A0004F913F912F910F900FBE0F901F90189577
:1002B00080E00E940B01EBCF8091000180FF11C014
:1002C000429A80916204813041F4109262048091DC
:1002D0000001869580930001DACF81E0809362046B
:1002E000F6CF80E00E940B01F2CF3199D0CF809100
:1002F00033018F5F80933301813049F28A3039F2C4
:100300008B3019F410923301C2CF90915804969516
:1003100090935804329B03C09058909358048930AE
:1003200009F0B5CF80916C0490916D0401968233F1
:10033000910510F090E080E020916004309161041C
:100340002817390709F499CFFC01EF5FFE4F209180
:100350005804208390936D0480936C048ECF81E0C9
:1003600090916304913009F080E09091670491309E
:1003700009F48E5F90916804913009F48C5F9DEED2
:1003800090935F0480935D0482E08093350181E067
:100390008093370108951F920F920FB60F92112488
:1003A0002F933F934F935F936F937F938F939F937D
:1003B000AF93BF93EF93FF938091C0002091C6004D
:1003C0008C7109F02FE38091690490916A04019681
:1003D000803233E0930714F090E080E040915904BC
:1003E00050915A044817590741F0FC01E85CFE4F50
:1003F000208390936A04809369040E94CC00FF914B
:10040000EF91BF91AF919F918F917F916F915F918C
:100410004F913F912F910F900FBE0F901F90189505
:100420001092C50087E48093C40086E08093C200E8
:1004300088E98093C10008959091C00095FFFCCF9A
:100440008093C600089528B1207296B1990F9072DA
:100450002913F9CF95B19E7D80FD9F5F84FD905E4D
:1004600095B9982F927081FD90E882FD905C83FD94
:10047000905E85FD905F86FD985F87FD9C5F9BB9D0
:1004800088B190E2892788B90895459896B190710E
:10049000E9F795B19E7F84FD9F5F95B9982F907283
:1004A00085FD90E886FD905C87FD905E9BB9459A3E
:1004B00096B19071E9F395B19E7F80FD9F5F95B9EC
:1004C000982F927081FD90E882FD905C83FD905E94
:1004D0009BB94598089584EA8093BC008091BC0044
:1004E00087FFFCCF8091B90082E08093BB0084E855
:1004F0008093BC008091BC0087FFFCCF8091B90045
:1005000081E080935E040895CF93C82F80915E04AC
:10051000811102C00E946B02C093BB0084E88093EB
:10052000BC008091BC0087FFFCCF8091B900887F20
:10053000883269F00E946B02C093BB0084E880930C
:10054000BC008091BC0087FFFCCF8091B900CF91A7
:1005500008950895CF932091690430916A048091A1
:10056000590490915A0428173907D1F0F8948091D2
:10057000590490915A040196803223E0920710F0BA
:1005800090E080E0FC01E85CFE4FC08190935A044B
:10059000809359040E94CC0078948C2FCF910895B9
:1005A0000000D9CF4091690450916A042091590408
:1005B00030915A0481E04217530709F480E008950E
:1005C00020916C0430916D048091600490916104DD
:1005D00028173907B1F0F894209160043091610434
:1005E0002F5F3F4F2233310510F030E020E0F9015A
:1005F000EF5FFE4F80813093610420936004789414
:10060000089580E00895CF930E94E002C82F8823C8
:10061000D1F08A3F31F481E080933701C0936B04BD
:1006200012C080916B04803FA9F4C03E61F0C0937A
:100630006B04C23111F0C93511F410926404C43155
:1006400021F410923401CF910895C131E1F7109255
:100650006604F9CF803E21F08091670481111EC0AD
:10066000C0936B0485E0C53771F088E1C23759F05B
:1006700080E1CB3641F084E0C43729F080E98C0F6B
:10068000823020F481E0CF910C941C02CC36D1F35F
:10069000C936C1F3CD37B1F3CA37A1F3C23111F076
:1006A000C93521F481E080936404B8CFC43121F4CA
:1006B00081E080933401B2CFC13121F481E0809395
:1006C0006604ACCFC83569F480916804813029F4A0
:1006D000109268040E94AF01A1CF81E0809368046A
:1006E000F9CFC73759F480916704813019F410921B
:1006F0006704F0CF81E080936704ECCFCE3759F4E4
:1007000080916304813019F410926304E3CF81E097
:1007100080936304DFCFC43808F080CFEC2FF0E083
:1007200080916404811117C0E451FF4F84918823A4
:1007300009F474CF9FE9980F9A3180F4909168047E
:10074000913061F4805290913401913009F48F71AD
:100750000E941C0263CFE859FF4FE8CF9FEB980F30
:100760009A3188F790916804913069F7805EEBCFF9
:100770001F920F920FB60F9211242F933F934F9316
:100780005F936F937F938F939F93AF93BF93EF93F9
:10079000FF9310923301109258041092350180910A
:1007A0006504813031F40E94E6000E940701109236
:1007B0006504FF91EF91BF91AF919F918F917F91D0
:1007C0006F915F914F913F912F910F900FBE0F90BE
:1007D0001F90189510926D0410926C041092610491
:1007E000109260041092330110926B0481E08093A8
:1007F000360110925E0410926A04109269041092FD
:100800005A04109259041092650410923501109206
:1008100037011092620486E085B989E284B91BB879
:1008200018B88FEF8AB91A995FC088E087B910921B
:10083000B90087E08093B800C2E0C0936800C0931D
:100840006C0010926404109234011092660481E0EE
:100850008093680480936704109263040E941002DE
:1008600080917000826080937000C093B00087E038
:100870008093B10087ED8093B30078940E940701C4
:1008800084EF91E0ECECFAE03197F1F700C0000062
:100890000197C1F70E94AF01C2E00E94D2028130ED
:1008A00071F40E94AA028B3151F48091360181309B
:1008B00031F40E94AA028D32D1F4109236010E94C6
:1008C0000303809165048111E8CF8091350188236D
:1008D00021F38330E1F480915B0480930001C093A5
:1008E00035010E94E600D9CF88E287B9A5CF8B35C4
:1008F00031F70E94AA0290ED980F9A30D0F38B3313
:10090000F1F60E94AA0280538A30D8F3D8CF823001
:1009100071F480913701813009F0BFCF1092370117
:1009200090915F049093000180933501DACF81307C
:1009300009F0B3CF80913701813009F0AECF8091BB
:100940005D048093000110923501CBCFF894FFCF66
:00000001FF
