:100000000C94B8000C94CA000C94CA000C94CA005A
:100010000C9412010C94CA000C94CA000C9469034D
:100020000C94CA000C94CA000C94CA000C94CA0028
:100030000C94CA000C94CA000C94CA000C94CA0018
:100040000C94CA000C94CA000C94CD010C94CA0004
:100050000C94CA000C94CA000C94CA000C94CA00F8
:100060000C94CA000C94CA00009500918F8D8E9854
:10007000009694929000AC00000000000051210016
:1000800000005A53415722000043584445249C3AEB
:100090000020564654522500004E424847595E0003
:1000A000004C4D4A55262A00003C4B494F29280058
:1000B000003E3F4C3A505F00000040007B2B0000A8
:1000C00000000D7D007E0000007C000000080000A4
:1000D0003100343700000000302E3235363803004E
:1000E000972B332D2A3900000000008700890085F6
:1000F0008381828C008A88868407060000000000C5
:100100000071310000007A73617732000063786417
:100110006534333B0020766674723500006E626889
:1001200067793607082C6D6A75373800002C6B69C3
:100130006F303900002E2F6C3B702D00000027001F
:100140005B3D000000000D5D00230000005C00002E
:10015000000008000031003437000000302E323536
:10016000363803008B2B332D2A390000000000871E
:1001700011241FBECFEFD4E0DEBFCDBF24E0A0E04E
:10018000B1E001C01D92AE36B207E1F70E949B03B9
:100190000C9473040C9400008091690490916A049B
:1001A0002091590430915A048217930718F0821B4A
:1001B000930B04C0805E9C4F821B930B8032910591
:1001C00008F443988130934008F0439A0895E2EB95
:1001D000F0E0108286E695E00197F1F70000399A89
:1001E000419886E695E00197F1F700003A9A429827
:1001F00086E695E00197F1F7000039984198108262
:1002000081E0809362041092330180936504089525
:1002100087B1897F87B90895813011F4429A089592
:10022000429808951F920F920FB60F9211242F93A8
:100230003F934F935F936F937F938F939F93AF936E
:10024000BF93EF93FF931092B200809165048130C9
:10025000F1F5319B75C0809133018F5F809333013D
:100260008A3011F40E940801809133018B3039F4F7
:1002700010926504109233011092580461C08930C5
:1002800059F480916204813019F40E940C0158C025
:1002900080E00E940C0154C08091000180FF0EC0DC
:1002A00081E00E940C0180916204813019F4109267
:1002B000620407C081E08093620403C080E00E9472
:1002C0000C018091000186958093000139C031991D
:1002D00037C0809133018F5F80933301813081F18A
:1002E0008A3071F18B3019F41092330129C090914A
:1002F0005804969590935804329B03C0905890935D
:1003000058048930E9F480916C0490916D04019651
:100310008233910510F080E090E0209160043091EC
:1003200061048217930751F0FC01EF5FFE4F2091AB
:100330005804208390936D0480936C0410925804A9
:10034000FF91EF91BF91AF919F918F917F916F91AD
:100350005F914F913F912F910F900FBE0F901F9083
:10036000189581E090916304913009F080E09091BC
:100370006704913009F48E5F90916804913009F41C
:100380008C5F9DEE90935F0480935D0482E0809388
:10039000350181E08093370108951F920F920FB6C7
:1003A0000F9211242F933F934F935F936F937F93FB
:1003B0008F939F93AF93BF93EF93FF938091C00070
:1003C0002091C6008C7109F02FE38091690490910F
:1003D0006A040196803233E0930714F080E090E0E5
:1003E0004091590450915A048417950741F0FC013B
:1003F000E85CFE4F208390936A04809369040E9416
:10040000CC00FF91EF91BF91AF919F918F917F9120
:100410006F915F914F913F912F910F900FBE0F9071
:100420001F9018951092C50087E48093C40086E061
:100430008093C20088E98093C1000895E0ECF0E069
:10044000908195FFFDCF8093C6000895CF932091B2
:10045000690430916A048091590490915A042817D4
:10046000390761F400002091690430916A04809199
:10047000590490915A0428173907A1F3F8948091F0
:10048000590490915A040196803223E0920710F0AB
:1004900080E090E0FC01E85CFE4FC08190935A043C
:1004A0008093590478940E94CC008C2FCF910895AA
:1004B0004091690450916A042091590430915A0482
:1004C00081E04217530709F480E0089520916C04FD
:1004D00030916D0480916004909161042817390770
:1004E000B1F0F89420916004309161042F5F3F4F88
:1004F0002233310510F020E030E0F901EF5FFE4FCC
:10050000808130936104209360047894089580E0A2
:100510000895CF930E946602C82F882309F4D7C09C
:100520008A3F39F481E0809337018AEF80936B042E
:10053000CEC080916B04803FB1F4C03E09F4C7C0C7
:10054000C0936B04C23111F0C93511F410926404E8
:10055000C43119F410923401BAC0C13109F0B7C0E6
:1005600010926604B4C0803E21F08091670481112E
:100570003EC0C0936B04C53721F485E00E941E0283
:10058000A6C0C23721F488E10E941E02A0C0CB366B
:1005900021F480E10E941E029AC0C43721F484E055
:1005A0000E941E0294C0C03721F481E00E941E0206
:1005B0008EC0C13721F481E00E941E0288C0CC3673
:1005C00021F481E00E941E0282C0C93621F481E03C
:1005D0000E941E027CC0CD3721F481E00E941E02E1
:1005E00076C0CA3721F481E00E941E0270C0C23179
:1005F00011F0C93521F481E08093640466C0C431F0
:1006000021F481E08093340160C0C13121F481E0A4
:10061000809366045AC0C83569F4809168048130BB
:1006200019F41092680403C081E0809368040E946A
:10063000B1014BC0C73769F480916704813019F468
:100640001092670403C081E0809367040E94B101A7
:100650003CC0CE3769F480916304813019F4109264
:10066000630403C081E0809363040E94B1012DC044
:10067000C43858F580916404811106C0EC2FF0E075
:10068000E451FF4F849105C0EC2FF0E0E859FF4F93
:1006900084918823D1F09FE9980F9A3130F490919A
:1006A0006804913059F4805209C09FEB980F9A3139
:1006B00028F490916804913009F4805E909134019F
:1006C000913009F48F710E941E02C0936B04CF9188
:1006D00008951F920F920FB60F9211242F933F93FC
:1006E0004F935F936F937F938F939F93AF93BF933A
:1006F000EF93FF931092330110925804109235013A
:1007000080916504813031F40E94E7000E94080165
:1007100010926504FF91EF91BF91AF919F918F91DE
:100720007F916F915F914F913F912F910F900FBEED
:100730000F901F90189510926D0410926C041092F7
:100740006104109260041092330110926B0481E0F6
:100750008093360110925E0410926A04109269042C
:1007600010925A04109259041092650410923501A7
:10077000109237011092620486E085B989E284B94B
:100780001BB818B88FEF8AB91A9908C088E087B9E2
:100790001092B90087E08093B80002C088E287B960
:1007A000C2E0C0936800C0936C0010926404109281
:1007B00034011092660481E080936804809367049A
:1007C000109263040E941202E0E7F0E080818260F0
:1007D0008083C093B00087E08093B10087ED809361
:1007E000B30078940E9408010E94B1010E94E700C2
:1007F000D0E001E012E00E9458028130D9F50E9459
:1008000026028B31B9F580913601813099F50E942D
:1008100026028D3219F4D09336012CC08B3551F558
:100820000E94260290ED980F9A3078F4CD2FC436AE
:1008300030F4CC0F8C2F880F880FC80FC90F0E947F
:10084000260290ED980F9A3090F38B3399F40E9422
:10085000260280538A3070F4CD2FC43630F4CC0F8A
:100860009C2F990F990FC90FC80F0E942602805321
:100870008A3098F30E948902809165048111BBCF70
:1008800080913501882309F4B6CF833049F48091F3
:100890005B0480930001109335010E94E700ABCF09
:1008A000823081F480913701813009F0A4CFD09358
:1008B000370180915F0480930001009335010E940D
:1008C000E70099CF813009F096CF809137018130D0
:1008D00009F091CF80915D0480930001D0933501A0
:0A08E0000E94E70088CFF894FFCFD4
:00000001FF
